:1000000015C00EC84FC94EC94DC94CC94BC94AC9C4
:1000100049C948C947C946C945C944C943C942C96C
:1000200041C940C93FC900600066800011241FBE5D
:10003000CFE5D4E0DEBFCDBFE6E2F0E040E017C0A0
:10004000B591A59135912591059107FD0CC095912C
:100050008591EF01F92FE82F05900D92A217B307B4
:10006000D9F7FE0104C01D92A217B307E1F7EB32E6
:0C007000F40731F766D30FC9F894FFCFF6
:10007C00434952435549542044494745535400443D
:10008C00495354414E43453D00256400636D202087
:03009C0020200021
:10009F0068076C094C836A9074A07AC000806888E6
:0600AF0000846C82008158
:0700B500286E756C6C290038
:0600BC00286E696C2900AA
:1000C2002F923F924F926F927F928F929F92AF9216
:1000D200BF92CF92DF92EF92FF920F931F93CF9333
:1000E200DF93CDB7DEB72E970FB6F894DEBF0FBE03
:1000F200CDBF4C016B0138011A8219828FEF9FEF3D
:100102009C838B831E821D8258874F833A8729875F
:10011200A12CB12CD6012D913D914C912A0D3B1D64
:10012200411DB7FC4A95F901849147FD80818111F7
:1001320016C0F601208331834283F901849147FD81
:100142008081853209F0FBC11901442EFFEF2F1A7D
:100152003F0A4F0AD6012D923D924C921AC0853227
:1001620041F3B401082E000C990B93D54FEFA41A5A
:10017200B40AD0CF2C32DCF02D3229F529813A8114
:1001820021603A8329830196A11DF6018083918320
:10019200A283F60180819181A281FC012491A7FDB5
:1001A20020812B3239F729813A812460EACF20322B
:1001B20021F429813A812860E4CF233251F4298144
:1001C2003A812061DECF203321F429813A812260F5
:1001D200D8CFB701C60179D69E838D8397FF0BC016
:1001E20029813A81F1E02F273A83298391958195DC
:1001F20091099E838D8389819A8180FF03C08D7FBF
:100202009A838983F60180819181A281FC012491E4
:10021200A7FD20812E3259F40196A11DF60180839B
:100222009183A283B701C60150D69C838B83C601FA
:10023200E1D4182FD6012C9111968C911197129618
:100242009C91E22FF82F849197FD8081082E000C5B
:10025200990B18D8893609F448C084F4833609F416
:100262000BC134F4853209F437C18136E1F042C161
:100272008436D9F188360CF4DDC03CC1803709F4EC
:10028200A7C03CF48E3609F4CBC08F3609F467C0A0
:1002920031C1853709F446C0883709F47DC08337F8
:1002A20009F028C1FFC0612F70E0A701CE010B96B3
:1002B200A6DE892B09F43AC1F60180819181A281DF
:1002C2009C014A2F2F5F3F4F4F4F20833183428340
:1002D200FC012491A7FD2081AE01455F5F4FBE0165
:1002E2006F5F7F4FC4018BDE1EC1612F70E09701EB
:1002F20041E050E0CE010B9607D3892B09F416C1D9
:10030200F60180819181A2810196A11D8083918352
:10031200A283AE01455F5F4FBE016F5F7F4FC40195
:1003220084D201C1612F70E0970140E050E0CE011C
:100332000B96EAD2892B09F4F9C0F60180819181EA
:10034200A2810196A11D80839183A283AE01455FA4
:100352005F4FBE016F5F7F4FC40173D5E4C0612F51
:1003620070E0970140E050E0CE010B96CDD2892B90
:1003720009F4DCC0F60180819181A2810196A11D60
:1003820080839183A283AE01455F5F4FBE016F5FA1
:100392007F4FC40188D3C7C0612F70E0970140E04E
:1003A20050E0CE010B96B0D2892B09F4BFC0F60102
:1003B20080819181A2819C014A2F2F5F3F4F4F4F35
:1003C200208331834283FC012491A7FD20811FC039
:1003D200970140E050E060EF70E0CE010B9694D2BE
:1003E200892B09F4A3C0F60180819181A281019633
:1003F200A11D80839183A2838B859C85892B31F4F7
:1004020000E010E02CEB30E040E088C028E7AE01CD
:10041200455F5F4FBE016F5F7F4FC401A9D083C0AC
:10042200A501460D571D612F70E09701CE010B9675
:10043200E6DD7CC0612F70E0A701CE010B96DFDD07
:10044200892B09F473C0F60180819181A2819C01FC
:100452004A2F2F5F3F4F4F4F208331834283FC014E
:100462002491A7FD2081AE01455F5F4FBE016F5F02
:100472007F4FC401C4DD57C0103809F057C0F601E0
:1004820080819181A2810196A11D80839183A283A3
:10049200D701ED91FC911197CF0102968D939C9318
:1004A200808126C0103809F041C0F6018081918117
:1004B200A2810196A11D80839183A283D701ED9130
:1004C200FC911197CF0103968D939C9320813181EA
:1004D200428100E010E022C0103841F5F60120818F
:1004E200318142812F5F3F4F4F4F208331834283BF
:1004F2008B870EC085E28B87F60120823182428291
:100502001A8219821E821D828FEF9FEF9C838B833A
:100512009E01255F3F4F40E801E010E0BE016F5FA2
:100522007F4FC4010ED58A0D9B1D0AC0F601808142
:100532009181A2810196A11D80839183A283C5012D
:100542002E960FB6F894DEBF0FBECDBFDF91CF91CE
:100552001F910F91FF90EF90DF90CF90BF90AF90DF
:100562009F908F907F906F904F903F902F90089523
:10057200AFE0B0E0EEEBF2E0A2C51C016B015A83E2
:1005820049832B83FB018281938184809580E08063
:10059200F180A680B78097FD03C0E894E1F802C01D
:1005A20081E090E0E981FA8140805180628073802D
:1005B2009701207133273D832C838401E4FE07C019
:1005C200411451046104710411F002501109F70140
:1005D200E870FF27FF83EE83E3FE02C0015011099A
:1005E200F6010084F185E02D3197FF87EE87EA0D51
:1005F200FB1D10829C01201B310B39872887C70104
:10060200827099279B878A87EB818E2FEE0F990B39
:100612009C01215431093D872C872E853F8522304C
:10062200310530F48C819D81892B09F03FC059C07E
:10063200411451046104710451F18E859F85019723
:100642009F878E87C2018F7099278A30910514F493
:10065200C09602C0895A9F4FEC85FD857A9740F477
:100662009C012062215631092A31310508F401D654
:10067200EE85FF85EA0DFB1D80830150110984E0A0
:1006820076946794579447948A95D1F7C6CF888514
:100692009985800F911F181619067CF21016110603
:1006A2000CF6EA85FB85EF2B41F6BCCFE981FA8196
:1006B20080819181A281B381892B8A2B8B2B89F036
:1006C200EE85FF85EA0DFB1D31972B8120838E85F8
:1006D2009F8502979F878E87FC01EA0DFB1D80E3B1
:1006E2008083EE81FF81EF2B59F02E853F852150CB
:1006F20031093F872E87F901EA0DFB1D80E28083D5
:10070200F60120853185215031098E859F85281B70
:10071200390B8A0D9B1DAC0160E88401C10102D333
:100722009C01F1018081918190FF06C0F6018281D6
:100732009381821793070CF4C9012F96E2E1DBC47F
:10074200CF93DF93CDB7DEB760970FB6F894DEBFD5
:100752000FBECDBF8FEF87BB84BB89EF81BB83ED1B
:1007620090E30197F1F700C000008BB780648BBF64
:1007720085B7816085BF1FBC81E054D583ED90E3CE
:100782000197F1F700C0000088E34CD583ED90E3B8
:100792000197F1F700C000008FE044D583ED90E3AC
:1007A2000197F1F700C0000078940F2EFAE3AF2E04
:1007B200B12CF02D0F2EF5E9CF2EF0E0DF2EF0E078
:1007C200EF2EF02D8E010F5F1F4F280190E8692E4A
:1007D200909A85E08A95F1F79098809064009090C5
:1007E20065006CE770E080E0A1D480EC1BD56BE87B
:1007F20070E080E09BD4C401B501F1D47F936F9384
:10080200EF92DF92CF921F930F93FCD4862DB20109
:100812008DD468E970E080E089D480E803D50FB612
:0A082200F894DEBF0FBECDBFD3CFA8
:10082C00A2E0B0E0EBE1F4E045C44C016B01FB014C
:10083C0022813381A480B580808191819A838983C0
:10084C0066807780FA012080318042805380B2012B
:10085C00A10157FE07C044275527BA014219530975
:10086C006409750937FD03C08D7F9A8389839501CF
:10087C0057FC05C0898182FD02C083FF02C0215054
:10088C003109CE0101967C010AE010E0C601A4D02A
:10089C0057FC03C0298122FF0AC00197F301E80F1E
:1008AC00F91F57FC02C02BE209C02DE207C023FF41
:1008BC0006C00197F301E80FF91F20E22083E980BD
:1008CC00FA80F6012085318521503109281B390B1E
:1008DC00860D971DAC0160E88501C4011ED29C01F8
:1008EC00F4018081918190FF06C0F6018281938191
:0E08FC00821793070CF4C9012296E2E1F7C3BC
:10090A00CF93DF93DC01F90168387105F1F05CF4EB
:10091A006138710561F164387105C9F16038710592
:10092A0009F056C034C0603C710561F1603F710541
:10093A0009F443C0603A710509F04AC0C081D18107
:10094A00CE010296918380832AC0C081D181CE01D3
:10095A00029691838083452B39F04881042E000C3E
:10096A00550B660B770B21C0488150E02EC0C08121
:10097A00D181CE01049691838083488159816A810D
:10098A007B8113C0C081D181CE0102961AC0C08179
:10099A00D181CE01029691838083452BA1F04881B3
:1009AA005981052E000C660B770B4D935D936D9361
:1009BA007C93139781E090E00DC0C081D181CE0174
:1009CA000396918380834881598160E070E0EDCF7E
:0A09DA0080E090E0DF91CF910895D6
:1009E400A0E0B0E0E7EFF4E06BC3DC012801169669
:1009F400AD90BC901797F701808191811296ED918B
:100A0400FC9113971896CD91DC9119972197F7FFD4
:100A140002C0E1E0F0E0CA0DDB1D18826901A1E02B
:100A2400B0E08F01021B130B4C01F2E08F229924DA
:100A3400052C000C66087708CE018A199B09CA1593
:100A4400DB0511F1411551056105710581F0CB01FB
:100A5400BA01A301920110D3CA01A62FB72F605D7A
:100A64006A9341E0C41AD108A901BC01E5CF9801F9
:100A74002C0D3D1D1216130654F31C141D0434F4DE
:100A84008114910421F702C080E090E0AB2B31F493
:100A9400F701208131812F7E31832083CDB7DEB7EA
:040AA400E0E12AC3A0
:100AA800A2E0B0E0E9E5F5E00BC35C016B01FB01F6
:100AB8002281338184809580808191819A83898382
:100AC8006680778037FD03C08D7F9A838983FA011A
:100AD8004081518162817381CE0101967C0108E0D9
:100AE80010E09401C6017ADF298124FF06C001972E
:100AF800F301E80FF91F20E32083298123FF06C0B3
:100B08000197F301E80FF91F20E22083E980FA80BA
:100B1800F6012085318521503109281B390B860DB6
:100B2800971DAC0160E88401C501F9D09C01F5016D
:100B38008081918190FF06C0F6018281938182179E
:0C0B480093070CF4C9012296EEE0D6C21F
:100B54006F927F928F92EF92FF920F931F93CF9396
:100B6400DF93CDB7DEB761970FB6F894DEBF0FBE43
:100B7400CDBFFE01319651E1DF011D925A95E9F78F
:100B8400A2E0B1E0BA83A9839C838B8377FF09C079
:100B94008FE490E090936100809360008FEF9FEF6B
:100BA40018C03901842E7C01615071097F836E83E2
:100BB4009801682DA301CF01E8D2488559852E817B
:100BC4003F814217530708F49A01F701E20FF31F1C
:100BD400108261960FB6F894DEBF0FBECDBFDF91D1
:100BE400CF911F910F91FF90EF908F907F906F9016
:020BF400089562
:100BF600CF92DF92EF92DC0190E0292F30E0220FB6
:100C0600331F6901032E000CEE086E2DA601415616
:100C16005F4F6F4F6A01E62EFA018491E7FC8081EF
:100C260081110DC02F5F3F4F032E000C440B215640
:100C36003F4F4F4FF901849147FD808124C0CD90ED
:100C4600DD90EC901297F6014491E7FC4081841305
:100C560015C02F5F3F4F032E000C440B21563F4F0C
:100C66004F4FF901949147FD90815FEFC51AD50A60
:100C7600E50ACD92DD92EC92129701C09F5F9B3000
:0E0C860008F4BBCF892FEF90DF90CF90089538
:100C94000F931F93CF93DF93DB012D913C91119719
:100CA40030FF25C017964D915C91189715962D919C
:100CB4003C9116974217530778F41296ED91FC91E4
:100CC4001397808312962D913C9113972F5F3F4F7A
:100CD40013963C932E93129717962D913C91189747
:100CE4002F5F3F4F18963C932E93179715C01D9670
:100CF400ED91FC911E97309719F48FEF9FEF0CC084
:100D04008B01EC010995892BC1F7F8018781908546
:100D1400019690878783CE01DF91CF911F910F9128
:020D2400089530
:100D26006F927F928F92AF92BF92CF92DF92EF92A5
:100D3600FF920F931F93CF93DF935C013A01862EA8
:100D4600E901670181E0C822DD24E0FC03C0201729
:100D5600310750F09E01682DA301C5012BD1C017A4
:100D6600D10710F0CE0116C07801EC1AFD0AE11485
:100D7600F10441F0B50180E290E089DF81E0E81AF4
:100D8600F108F5CFCD2829F49E01682DA301C501F0
:100D960011D1C801DF91CF911F910F91FF90EF9074
:100DA600DF90CF90BF90AF908F907F906F90089517
:100DB600A3E8B0E0E0EEF6E086C15C014901CF575A
:100DC600DF4F488359836A83C158D040C12CD12C48
:100DD600CF57DF4F2881C158D040CE57DF4F98817B
:100DE600C258D040CD57DF4F8881C358D040E22F3C
:100DF600F92F949187FD90819923E1F07401860182
:100E060020E830E0AE014F5F5F4FBE016F577F4F66
:100E1600C50154D98C0D9D1D8C159D054CF48FE490
:100E260090E090936100809360008FEF9FEF03C086
:0E0E36006C01CECFC601CD57DF4FECE060C19E
:100E4400A2E0B0E0E7E2F7E03DC15C016B01FB0129
:100E54002281338184809580808191819A838983E2
:100E64006680778037FD03C08D7F9A838983FA017A
:100E74004081518162817381CE0101967C010AE037
:100E840010E09401C601ACDDE980FA80F60120850A
:100E9400318521503109281B390B860D971DAC0172
:100EA40060E88401C5013DDF9C01F50180819181E9
:100EB40090FF06C0F60182819381821793070CF498
:080EC400C9012296EEE01AC1FB
:100ECC00DC012D913D914C911297F901849147FDD4
:100EDC0080818A3221F080E090E07AE011C02F5FAF
:100EEC003F4F4F4F2D933D934C93DB01ED91FC9174
:100EFC001197CF0102968D939C93808191810895D7
:100F0C002D913D914C911297F901549147FD5081CF
:100F1C0050535A3080F4789FF001799FF00D1124D2
:100F2C00CF01850F911D2F5F3F4F4F4F2D933D9359
:080F3C004C931297E5CF0895D4
:100F44006F927F928F92CF92DF92EF92FF920F93E4
:100F54001F93CF93DF936C01FB013901842EC801E9
:100F6400C281D38104811581E080F180232B242B5D
:100F740031F425EB622E20E0722E20E0822E0097C1
:100F840019F4882DB301EBD0D7FD04C0C817D907D5
:100F940008F4CE019C01682DA301C601C2DEDF91D5
:100FA400CF911F910F91FF90EF90DF90CF908F9092
:060FB4007F906F9008958C
:100FBA006F927F928F92CF92DF92EF920F931F934D
:100FCA00CF93DF938C016A01E62EE9013A01862E5E
:100FDA00620E731E811C37FD8A94C614D704E80476
:100FEA0071F0F6018491E7FC8081B801082E000CAB
:100FFA00990B4BDE8FEFC81AD80AE80AEECFCE015A
:10100A00DF91CF911F910F91EF90DF90CF908F904A
:06101A007F906F90089525
:101020001F921FB61F9211248F939F93809162008D
:1010300090916300019769F41EBC8CB59DB59093A7
:101040006500809364001DBC1CBC1092630010926C
:1010500062008091620090916300009749F48EB520
:1010600081608EBD81E090E0909363008093620088
:0C1070009F918F911F901FBE1F9018953C
:10107C00A1E21A2EAA1BBB1BFD010DC0AA1FBB1F90
:10108C00EE1FFF1FA217B307E407F50720F0A21B02
:10109C00B30BE40BF50B661F771F881F991F1A946F
:1010AC0069F760957095809590959B01AC01BD0199
:0410BC00CF010895C3
:1010C0002F923F924F925F926F927F928F929F9258
:1010D000AF92BF92CF92DF92EF92FF920F931F9346
:1010E000CF93DF93CDB7DEB7CA1BDB0B0FB6F894F7
:0810F000DEBF0FBECDBF099465
:1010F8002A88398848885F846E847D848C849B84A0
:10110800AA84B984C884DF80EE80FD800C811B81AD
:10111800AA81B981CE0FD11D0FB6F894DEBF0FBEDC
:06112800CDBFED010895AA
:10112E00CF92DF92EF926B01E82EFB018491E7FCE8
:10113E008081882359F09FEFC91AD90AE90A7AD01B
:10114E00F6018491E7FC80818111F5CFEF90DF905D
:04115E00CF90089591
:10116200CF92DF92EF926B01E82EA82FCB01FC0108
:101172002491A7FD2081222319F00196A11DF7CF0A
:0C1182008C199D09EF90DF90CF9008952C
:10118E00A2E0B0E0ECECF8E0A2CF8C013A83298328
:10119E009E012F5F3F4F08DEF801208124FF02C021
:0A11AE008FEF9FEF2296E4E0AECF32
:1011B800AA1BBB1B51E107C0AA1FBB1FA617B70775
:1011C80010F0A61BB70B881F991F5A95A9F7809591
:0811D8009095BC01CD010895C2
:1011E00097FB072E16F4009406D077FD08D0E4DFB5
:1011F00007FC05D03EF4909581959F4F089570951A
:0612000061957F4F089587
:10120600A0E0B0E0E8E0F9E068CF9E01265F3F4F3E
:101216004F81588569858D819E811ED0E2E079CF08
:1012260088BBA898AA9A8FEC97E00197F1F700C0BF
:0C123600000085B3887F85BB18BA0895BE
:1012420088BBA89AAA9A8FEC97E00197F1F700C0A1
:0C125200000085B3887F85BB18BA0895A2
:10125E000F931F9389019A01462F6FEF7FE773DC7F
:06126E001F910F9108958D
:101274009C01215631092A31310510F48F759927C3
:021284000895CB
:101286009C01215431092A31310508F48062089500
:0E129600EC0107D005D0CE0105D0CE0104D06A
:0212A400ADC6D5
:0212A6000895A9
:0212A8000895A7
:0212AA000895A5
:0212AC00E5D685
:00000001FF
