:060000000A128A110E280D
:10000800FE00030EF0000A08F1007F08F2000A1251
:100018008A1117280A128A111128F301F4018301A1
:100028000A128A112D280B1D1A281B282428013092
:10003800FF007F08831203138806EC3081000B1140
:100048007208FF0071088A00700E8300FE0E7E0E93
:1000580009008316031388018312031388010630ED
:10006800831603138100EC308312031381008B166F
:0C0078008B170B173E280A128A110E2865
:08400000FF3FFF3FFF3FFF3FC0
:02400E003A3F37
:00000001FF
