:100000000A128A11FC2F00308A000408840A820731
:100010000034483445344C344C344F340D340034BF
:100DAC00F00070088312031399000C1EDE2EDF2E48
:100DBC00DB2E0800F100F22E710884000A128A1151
:100DCC0003200A128A110A128A11D6260A128A11D3
:100DDC000130FF007F08F107710884000A128A11A4
:100DEC0003200A128A11003A031DFD2EFE2EE22E5C
:100DFC000800831603138601831203138601003047
:100E0C00A9000030A8002530A7008030A6000A12E7
:100E1C008A112B270A128A1101300A128A11E02634
:100E2C000A128A11033083120313AC000830AB0092
:100E3C007630AA00AA0B202FAB0B202FAC0B202F47
:100E4C000000122F0A128A1100288312031326089D
:100E5C00F9002708FA002808FB002908FC000430D8
:100E6C000310F90DFA0DFB0DFC0DFF3E031D362F83
:100E7C007C08F3007B08F2007A08F1007908F00096
:100E8C000030F7007A30F6001230F5000030F40034
:100E9C000A128A115F270A128A117008FF3E831604
:100EAC000313990018159816831203139817181624
:100EBC00080083120313A101F31F652F662F732FF4
:100ECC00F009F109F209F309F00A0319F10A0319FF
:100EDC00F20A0319F30AA101A10AF71F762F772F43
:100EEC00862FF409F509F609F709F40A0319F50A2E
:100EFC000319F60A0319F70A0130FF007F08A1064F
:100F0C000030A5000030A4000030A3000030A20087
:100F1C0073087204710470040319952F962FE32F34
:100F2C00A001A00AA62F0130F8000310F00DF10D5E
:100F3C00F20DF30DF80B9B2F0130FF007F08A0077B
:100F4C00F31FA92FAA2F992F0130F8000310A20D1F
:100F5C00A30DA40DA50DF80BAC2F73087702031D80
:100F6C00C12F72087602031DC12F71087502031D73
:100F7C00C12F70087402031CC42FC52FD42F700806
:100F8C00F4027108031C710FF5027208031C720F36
:100F9C00F6027308031C730FF702221401300310BE
:100FAC00F30CF20CF10CF00CFF3E031DD52F0130AD
:100FBC00A002031DE22FE32FAA2F21080319E72F0C
:100FCC00E82FF32FA209A309A409A509A20A031962
:100FDC00A30A0319A40A0319A50A2508F300240877
:100FEC00F2002308F1002208F000080083010A1225
:040FFC008A11FF2E29
:08400000FF3FFF3FFF3FFF3FC0
:02400E003A3F37
:00000001FF
