:1000000016C071C070C06FC06EC06DC06CC06BC0D8
:100010006AC069C068C067C066C065C064C063C0AC
:1000200062C061C060C0006000700000F000112478
:100030001FBECFE5D4E0DEBFCDBFE6E2F0E040E09A
:1000400017C0B591A59135912591059107FD0CC07B
:1000500095918591EF01F92FE82F05900D92A21748
:10006000B307D9F7FE0104C01D92A217B307E1F749
:0E007000ED32F40731F703D02FC0F894FFCF24
:10007E00CF93DF93CDB7DEB760970FB6F894DEBFA0
:10008E000FBECDBF8FEF81BB80E1E0E6F0E0DE0179
:10009E00119601900D928A95E1F79E012F5E3F4FCA
:1000AE00FE01319692B380813296892B82BB4FE34B
:1000BE008DE093E0415080409040E1F700C0000099
:0A00CE00E217F30779F712BAEBCF3F
:0E00D800EC0107D005D0CE0105D0CE0104D03A
:0200E6008CCFBD
:0200E800089579
:0200EA00089577
:0200EC00089575
:0200EE00C5DF6C
:1000F0000100020004000800100020004000800001
:00000001FF
