:1000000016C084C083C082C081C080C07FC07EC053
:100010007DC07CC07BC07AC079C078C077C076C014
:1000200075C074C073C00060007000011600112418
:100030001FBECFE5D4E0DEBFCDBFE6E2F0E040E09A
:1000400017C0B591A59135912591059107FD0CC07B
:1000500095918591EF01F92FE82F05900D92A21748
:10006000B307D9F7FE0104C01D92A217B307E1F749
:0E007000ED32F40731F703D042C0F894FFCF11
:10007E00CF93DF93CDB7DEB760970FB6F894DEBFA0
:10008E000FBECDBF80E1E0E6F0E0DE0111960190FB
:10009E000D928A95E1F78FEF81BB9E012F5F3F4F47
:1000AE00FE017396D90192B38C911296892B82BB65
:1000BE004FE986E891E0415080409040E1F700C062
:1000CE000000AE17BF0779F712BA92B3329780814C
:1000DE00892B82BB4FE986E891E0415080409040E9
:1000EE00E1F700C00000E217F30779F712BAD8CF94
:0E00FE00EC0107D005D0CE0105D0CE0104D014
:02010C0079CFA9
:02010E00089552
:02011000089550
:0201120008954E
:02011400B2DF58
:1001160001000200040008001000200040008000DA
:00000001FF
