:1000000012C0C7C0C6C0C5C0C4C0C3C0C2C0C1C082
:10001000C0C0BFC0BEC0BDC0BCC0BBC0BAC0B9C0FC
:10002000B8C0B7C0B6C011241FBECFE5D4E0DEBF54
:0A003000CDBF08D0A7C0F894FFCFA1
:0A003A00526563656976652D3E008E
:10004400CF93DF9300D000D00F92CDB7DEB78FEF00
:1000540081BB87BB87E084BB82E082B970D080E833
:100064004AD06AE370E080E02CD07E0126E0E20E04
:10007400F11CCE0101963C01E0E88E2E76D0FFEF14
:1000840020E782E0F15020408040E1F700C000000A
:100094008E010F5F1F4F5ED0F80181938F01EE1523
:1000A400FF05C9F7FFEF20E782E0F15020408040D0
:1000B400E1F700C0000080EC1ED0882DB30101D010
:0200C400DDCF8E
:1000C600CF92DF92EF926B01E82EFB018491E7FC61
:1000D6008081882359F09FEFC91AD90AE90A1CD0F2
:1000E600F6018491E7FC80818111F5CFEF90DF90D6
:0400F600CF9008950A
:1000FA0082BBA898A998AA9A8FE697E10197F1F787
:10010A0000C00000AA988FE697E10197F1F700C0B6
:04011A000000089544
:10011E0082BBA89AA998AA9A8FE697E10197F1F760
:10012E0000C00000AA988FE697E10197F1F700C092
:04013E000000089520
:1001420081E0DADF86E0D8DF82E0D6DF88E3D4DF41
:060152008CE0D2DF0895ED
:1001580084EC86BF06B607FEFDCF81B1887F803864
:06016800E1F783B10895E8
:10016E0094EC04C096BF06B607FEFDCF81B1887F22
:06017E008036C1F7089570
:0E018400EC0107D005D0CE0105D0CE0104D08D
:0201920036CF66
:020194000895CC
:020196000895CA
:020198000895C8
:02019A004DDF37
:00000001FF
