:060000000A128A11FC2F18
:100F4600831603138711871294012030831203132B
:100F56009400080083160313141CB22FB32FAD2F71
:100F66008312031313080800F0007008831203139A
:100F7600930083160313141CC12FC22FBC2F080025
:100F86008316031388018312031388014130F4008A
:100F96000A128A11A3270A128A1174080A128A11E0
:100FA600B7270A128A110230F3000430F200BA3071
:100FB600F100F10BDC2FF20BDC2FF30BDC2F000022
:100FC6000A128A11AD270A128A11831203138800A6
:100FD6000230F3000430F200BA30F100F10BF12FC9
:100FE600F20BF12FF30BF12F0000D02F0A128A110A
:0A0FF600002883010A128A11C32F9C
:08400000FF3FFF3FFF3FFF3FC0
:02400E003A3F37
:00000001FF
