:1000000012C0F3C0F2C0F1C0F0C0EFC0EEC0EDC04E
:10001000ECC0EBC0EAC0E9C0E8C0E7C0E6C0E5C09C
:10002000E4C0E3C0E2C011241FBECFE5D4E0DEBFD0
:0A003000CDBF0CD0C6C0F894FFCF7E
:10003A005472616E736D69742D3E0048454C4C4F85
:01004A0000B5
:10004C00CF93DF93CDB7DEB72A970FB6F894DEBF08
:10005C000FBECDBFFE0131968AE0DF011D928A955D
:10006C00E9F78FEF81BB87E084BBACD099D080E8F7
:10007C0073D06AE370E080E03BD08AE86DD065E431
:10008C0070E080E035D07E01B6E0EB0EF11CCE01C5
:10009C0001963C01E0E88E2E65E470E080E042D0F1
:1000AC00FFEF29E688E1F15020408040E1F700C0E5
:1000BC0000008E010F5F1F4F8ED0D8018D938D01E4
:1000CC00AE15BF05C9F7BFEFE9E6F8E1B150E04066
:1000DC00F040E1F700C0000080EC3ED06AE370E035
:1000EC0080E006D08AEC38D0882DB30101D0D4CF73
:1000FC00CF92DF92EF926B01E82EFB018491E7FC2B
:10010C008081882359F09FEFC91AD90AE90A36D0A1
:10011C00F6018491E7FC80818111F5CFEF90DF909F
:04012C00CF900895D3
:10013000CF92DF92EF926B01E82EFB018491E7FCF6
:100140008081882359F09FEFC91AD90AE90A45D05E
:10015000F6018491E7FC80818111F5CFEF90DF906B
:04016000CF9008959F
:1001640082BBA898A998AA9A8FE697E10197F1F71C
:1001740000C00000AA988FE697E10197F1F700C04C
:0401840000000895DA
:1001880082BBA89AA998AA9A8FE697E10197F1F7F6
:1001980000C00000AA988FE697E10197F1F700C028
:0401A80000000895B6
:1001AC0081E0DADF82E0D8DF86E0D6DF88E3D4DFD7
:0601BC008CE0D2DF089583
:0E01C200EC0114D012D0CE0112D0CE0111D01B
:0A01D0008CE287BB81E58DB908952C
:0801DA008FB9779BFECF089559
:0801E200779BFECF8FB1089559
:0201EA000ACF3A
:0201EC00089574
:0201EE00089572
:0201F000089570
:0201F20021DF0B
:00000001FF
