:1000000012C08DC08CC08BC08AC089C088C087C018
:1000100086C085C084C083C082C081C080C07FC0CC
:100020007EC07DC07CC011241FBECFE5D4E0DEBF02
:0A003000CDBF03D06DC0F894FFCFE0
:10003A008FEF81BB81E03FD087EA91E60197F1F724
:10004A0000C0000082E037D087EA91E60197F1F715
:10005A0000C0000084E02FD087EA91E60197F1F70B
:10006A0000C0000088E027D087EA91E60197F1F7FF
:10007A0000C0000080E11FD087EA91E60197F1F7FE
:10008A0000C0000080E217D087EA91E60197F1F7F5
:10009A0000C0000080E40FD087EA91E60197F1F7EB
:1000AA0000C0000080E807D087EA91E60197F1F7DF
:0600BA0000C00000BFCFF2
:1000C00090E080FB90F981FB222720F920FB91F939
:1000D00082FB222720F920FB92F983FB222720F9BB
:1000E00020FB93F984FB222720F920FB94F985FB60
:1000F000222720F920FB95F986FB222720F920FBF7
:1001000096F9881F8827881F80FB97F992BB08956E
:0E011000EC0107D005D0CE0105D0CE0104D001
:02011E0070CFA0
:02012000089540
:0201220008953E
:0201240008953C
:0201260087DF71
:00000001FF
