:1000000015C060C15FC15EC15DC15CC15BC15AC149
:1000100059C158C157C156C155C154C153C152C12C
:1000200051C150C14FC100600061800011241FBE4A
:10003000CFE5D4E0DEBFCDBFE6E2F0E040E017C0A0
:10004000B591A59135912591059107FD0CC095912C
:100050008591EF01F92FE82F05900D92A217B307B4
:10006000D9F7FE0104C01D92A217B307E1F7EB32E6
:0C007000F40731F756D013C1F894FFCF0D
:10007C0048656C6C6F20576F726C64212100486F5F
:0C008C00772041726520596F752121001A
:10009800CF93DF93C82FD62F809160008F70846034
:1000A8009C2F907F892B8093600060D08FEC97E025
:1000B8000197F1F700C00000809160008B7F80936A
:1000C80060006D2F53D08FEC97E00197F1F700C0D7
:1000D8000000809160008F70282F246030E1C39F5A
:1000E800C0011124822B809360006D2F3FD08FECCC
:1000F80097E00197F1F700C00000809160008B7FC6
:10010800809360006D2F32D08FEC97E00197F1F764
:0A01180000C00000DF91CF910895B0
:1001220082E080B980E44BD082E449D060E480E888
:1001320099D040E46CE770E080E066D02FEF89E66A
:1001420098E1215080409040E1F700C0000062E455
:1001520080E888D042E46AE870E080E055D02FEF72
:1001620089E698E1215080409040E1F700C000000C
:02017200DDCFDF
:10017400CF93DF93C82FD62F97D08FEC97E00197BA
:10018400F1F700C000008D2F7AD08FEC97E0019733
:10019400F1F700C000008C2F79D08FEC97E0019725
:1001A400F1F700C0000084E986BF8FEC97E0019767
:0C01B400F1F700C00000DF91CF9108952A
:1001C000803419F0823489F0089560E481E04BD0E6
:1001D00060E482E048D060E486E045D060E488E2F4
:1001E00042D060E48CE03FD0089562E481E03BD0EF
:1001F00062E482E038D062E486E035D062E488E2EE
:0A02000032D062E48CE02FD00895A4
:10020A00CF92DF92EF92CF936B01E82EC42FFB01BE
:10021A008491E7FC8081882361F09FEFC91AD90A8B
:10022A00E90A6C2F0BD0F6018491E7FC80818111D9
:0C023A00F4CFCF91EF90DF90CF900895AB
:10024600CF93DF93D82FC62F80916000896080936B
:1002560060008DDF6C2F8D2F1CDFDF91CF9108950D
:10026600CF93DF93D82FC62F88E0809360007FDF7F
:0C0276006C2F8D2F0EDFDF91CF910895CB
:0E02820083B984E886BF06B607FEFDCF089557
:0E02900083B984E886BF06B607FEFDCF089549
:0E029E00EC0113D011D0CE0111D0CE0110D042
:0C02AC0084EA86BF06B607FEFDCF089569
:0602B80082E080B9089508
:0602BE0084E986BF0895EB
:0202C4009DCECD
:0202C600089599
:0202C800089597
:0202CA00089595
:0202CC00D5DE7D
:00000001FF
