:060000000A128A1110280B
:10000800FE00030EF4000408F5000A08F6007F0855
:10001800F7000A128A11C6280A128A1113280A122E
:100028008A11C5210A128A11F900B601B701B8016F
:10003800B901BA01F80183010A128A119629003020
:1000480083120313AC000030AB000030AA0000306C
:10005800A900230822042104200403193428352880
:100068008228AD01AD0A45280130A8000310A00D73
:10007800A10DA20DA30DA80B3A280130FF007F089F
:10008800AD07A31F4828492838280130A8000310C5
:10009800A90DAA0DAB0DAC0DA80B4B282308270200
:1000A800031D602822082602031D60282108250256
:1000B800031D602820082402031C63286428732871
:1000C8002008A4022108031C210FA5022208031CF2
:1000D800220FA6022308031C230FA70229140130AC
:1000E8000310A30CA20CA10CA00CFF3E031D742846
:1000F8000130AD02031D8128822849282C08A3005D
:100108002B08A2002A08A1002908A00008008312D1
:1001180003132E08B2002F08B3003008B4003108CA
:10012800B50004300310B20DB30DB40DB50DFF3E8C
:10013800031D96283508A3003408A2003308A1003F
:100148003208A0000030A7007A30A6001230A500BF
:100158000030A4000A128A1123200A128A1183127D
:1001680003132008FF3E83160313990024309800D8
:100178009030831203139800831603138C160B1701
:100188008B170800831203138C1ECB28CC28F22867
:10019800981CCF28D028D228181218167808363E6E
:1001A80084001A08831380000130FF007F08F807D5
:1001B80005307806031DE128E228E328F80180309D
:1001C8000A128A1128210A128A1136300A128A1153
:1001D800AE210A128A11831203138C127708FF00CA
:1001E80076088A0075088400740E8300FE0E7E0E61
:1001F800090083120313A20022088800FE30FF00C2
:100208007F088605FD30FF007F0886050615063045
:1002180083120313A1002F30A000A00B1129A10BFA
:1002280011291629FB30FF007F0883120313860566
:10023800063083120313A1002F30A000A00B22293F
:10024800A10B222927290800F20072088312031340
:100258008800FE30FF007F088605FD30FF007F081C
:10026800860506150630F1003030F000F00B3A290B
:10027800F10B3A290000FB30FF007F0883120313BB
:1002880086050630F1003030F000F00B4929F10BFB
:10029800492900000800F20072088312031388003D
:1002A8000614FD30FF007F08860506150630F100AC
:1002B8003030F000F00B5E29F10B5E290000FB30B6
:1002C800FF007F088312031386050630F1003030E3
:1002D800F000F00B6D29F10B6D2900000800831662
:1002E80003138801860101300A128A11FD200A12BF
:1002F8008A1102300A128A11FD200A128A11063068
:100308000A128A11FD200A128A1138300A128A113B
:10031800FD200A128A110C300A128A11FD200A12D5
:100328008A1108000A128A1173210A128A110030F0
:1003380083120313B1000030B0002530AF008030C5
:10034800AE000A128A118B200A128A11AA290A12EF
:100358008A111028F300BC297308840000080A12C7
:100368008A114F210A128A110130FF007F08F30712
:100378007308840083130008031DC329C429B02906
:0403880008004134F4
:08400000FF3FFF3FFF3FFF3FC0
:02400E003A3F37
:00000001FF
