:1000000012C063C162C161C160C15FC15EC15DC137
:100010005CC15BC15AC159C158C157C156C155C114
:1000200054C153C152C111241FBECFE5D4E0DEBF7D
:0A003000CDBF03D03DC1F894FFCF0F
:10003A008FEF87BB3FD161E080E090E089D02FEF5E
:10004A0089E698E1215080409040E1F700C0000025
:10005A0080E090E03FD088BB2FEF89E698E12150FD
:10006A0080409040E1F700C0000062E081E090E04B
:10007A006FD02FEF89E698E1215080409040E1F758
:10008A0000C0000080E090E025D088BB2FEF89E611
:10009A0098E1215080409040E1F700C0000064E000
:1000AA0083E090E055D02FEF89E698E12150804017
:1000BA009040E1F700C0000080E090E00BD088BBE0
:1000CA002FEF89E698E1215080409040E1F700C087
:0400DA000000B1CFA2
:1000DE00CF93C82F80EA90E098D08FE99FE00197E8
:1000EE00F1F700C0000080E0AFD08FE99FE00197EC
:1000FE00F1F700C000008C2FA7D08FE99FE0019789
:10010E00F1F700C00000BAD08FE99FE00197F1F738
:10011E0000C0000081EA90E0CFD08FE99FE0019708
:10012E00F1F700C00000B6D0C82F8FE99FE001970D
:10013E00F1F700C00000A2D08FE99FE00197F1F720
:0C014E0000C000008C2F90E0CF910895BD
:10015A00CF93DF93D82FC62F80EA90E029D08FE97A
:10016A009FE00197F1F700C0000080E06FD08FE9AF
:10017A009FE00197F1F700C000008D2F67D08FE94B
:10018A009FE00197F1F700C000008C2F5FD08FE944
:10019A009FE00197F1F700C0000072D08FE99FE05D
:1001AA000197F1F700C0000080E0DF91CF91089538
:1001BA0094EA96BF06B607FEFDCFEFE9FFE0319756
:1001CA00F1F700C0000091B1987F983011F090319A
:1001DA00D1F483B984E886BF06B607FEFDCF8FE95E
:1001EA009FE00197F1F700C0000081B1887F883154
:1001FA0011F0803451F4EFE9FFE03197F1F700C0D4
:0E020A00000080E0089581E0089581E00895ED
:1002180024EA26BF06B607FEFDCFEFE9FFE03197D7
:10022800F1F700C0000091B1987F983011F090313B
:1002380081F783B984E886BF06B607FEFDCF8FE94C
:0E0248009FE00197F1F700C0000081B108951A
:1002560083B984E886BF06B607FEFDCF8FE99FE027
:100266000197F1F700C0000081B1887F883241F420
:100276008FE99FE00197F1F700C0000080E0089544
:0402860081E0089576
:10028A0084E986BF06B604FCFDCF8FE99FE001979B
:08029A00F1F700C00000089517
:0E02A20084EC86BF06B607FEFDCF83B108953B
:0E02B000EC010DD00BD0CE010BD0CE010AD048
:0802BE0011B882E080B9089537
:0402C60079DF08953F
:0202CA009ACECA
:0202CC00089593
:0202CE00089591
:0202D00008958F
:0202D200B1DE9B
:00000001FF
