:1000000016C099C098C097C096C095C094C093C0C0
:1000100092C091C090C08FC08EC08DC08CC08BC06C
:100020008AC089C088C000600068000140001124B7
:100030001FBECFE5D4E0DEBFCDBFE6E2F0E040E09A
:1000400017C0B591A59135912591059107FD0CC07B
:1000500095918591EF01F92FE82F05900D92A21748
:10006000B307D9F7FE0104C01D92A217B307E1F749
:0E007000ED32F40731F703D051C0F894FFCF02
:10007E00CF93DF93CDB7DEB728970FB6F894DEBFD8
:10008E000FBECDBF4BD088E0E0E6F0E0DE0111966A
:10009E0001900D928A95E1F710E003C0CE01019612
:1000AE0010D0CE0101960DD08FE493EC0197F1F7AD
:1000BE0000C00000CE0101961FD01F5F183089F7D7
:0200CE00EDCF74
:1000D000FC0120E030E041E050E0CA01022E02C005
:1000E000880F991F0A94E2F782BB819188BB89EF40
:1000F00090E00197F1F700C000002F5F3F4F2830DC
:06010000310559F70895D6
:10010600FC019C01285F3F4F808186958193E21711
:06011600F307D1F7089584
:0E011C00EC010DD00BD0CE010BD0CE010AD0DD
:0C012A008FEF87BB81BB18BA12BA089592
:0201360064CF94
:02013800089528
:02013A00089526
:02013C00089524
:02013E009DDF43
:08014000080CFEFFFE0C080094
:00000001FF
