:020000040000FA
:10000000600200104D010000550100005701000082
:10001000590100005B0100005D01000000000000CC
:100020000000000000000000000000005F01000070
:100030006101000000000000630100006501000094
:100040006701000067010000670100006701000010
:100050006701000067010000670100006701000000
:1000600067010000670100006701000067010000F0
:1000700067010000670100006701000067010000E0
:1000800067010000670100006701000067010000D0
:1000900067010000670100006701000067010000C0
:1000A00067010000670100006701000067010000B0
:1000B00067010000670100006701000067010000A0
:1000C00067010000670100006701000000F002F80E
:1000D00000F02CF80AA090E8000C82448344AAF1B6
:1000E0000107DA4501D100F021F8AFF2090EBAE8B4
:1000F0000F0013F0010F18BFFB1A43F0010318475C
:10010000700100008001000000230024002500266B
:10011000103A28BF78C1FBD8520728BF30C148BF6A
:100120000B6070471FB51FBD10B510BD00F02FF854
:100130001146FFF7F7FF00F0A5F900F04DF803B402
:10014000FFF7F2FF03BC00F055F8000009488047B4
:1001500009480047FEE7FEE7FEE7FEE7FEE7FEE7A9
:10016000FEE7FEE7FEE7FEE704480549034A054BC4
:100170007047000001030000CD0000006000001087
:1001800060020010600000107047704770477546AD
:1001900000F02CF8AE4605006946534620F00700F3
:1001A000854618B020B5FFF7DFFFBDE820404FF0CF
:1001B00000064FF000074FF000084FF0000BAC4670
:1001C000ACE8C009ACE8C009ACE8C009ACE8C009BB
:1001D00021F007018D46704710B50446AFF300804B
:1001E0002046BDE81040FFF7AABF00000048704756
:1001F0000000001001491820ABBEFEE726000200F7
:100200007047000083B0029000200190FFE7019842
:10021000B0F57A7F12DAFFE700200090FFE7009840
:100220000299884205DAFFE7FFE700980130009065
:10023000F5E7FFE7019801300190E8E703B0704768
:10024000010000000200000004000000080000009F
:1002500010000000200000004000000080000000AE
:10026000000100000002000000040000000800007F
:100270008C05000000000010600200000801000072
:10028000000000000000000000000000000000006E
:10029000000000000000000000000000000000005E
:1002A000000000000000000000000000000000004E
:1002B000000000000000000000000000000000003E
:1002C000000000000000000000000000000000002E
:1002D000000000000000000000000000000000001E
:1002E000000000000000000000000000000000000E
:1002F000000000000000000000000000FFFFFFFF02
:100300004CF2A010C4F20F002021016000688006AA
:1003100000280CD5FFE7FFE74CF2A010C4F20F0055
:1003200000684006002801D4FFE7F5E7FFE74CF23C
:100330000411C4F20F01032008604CF2A811C4F2AA
:100340000F01002008604CF2AC11C4F20F010860EC
:100350004CF20C10C4F20F00012303604CF2840134
:10036000C4F20F016320C0F2050008604CF28C015A
:10037000C4F20F01AA220A60552008604CF2800CDA
:10038000C4F20F0CCCF800300A600860FFE74CF2B2
:100390008800C4F20F0000684001002801D4FFE784
:1003A000F5E74CF28001C4F20F01032008604CF223
:1003B0008C01C4F20F01AA20086055200860FFE7F5
:1003C0004CF28800C4F20F00006800F04070B0F1F9
:1003D000407F01D0FFE7F3E74CF2A401C4F20F0124
:1003E000232008604CF2AC01C4F20F01AA220A607B
:1003F000552008604CF2A00CC4F20F0C0123CCF87D
:1004000000300A600860FFE74CF2A800C4F20F0059
:1004100000684005002801D4FFE7F5E74CF2A00191
:10042000C4F20F01032008604CF2AC01C4F20F01CA
:10043000AA20086055200860FFE74CF2A800C4F22B
:100440000F00006800F44070B0F5407F01D0FFE776
:10045000F3E74CF2C401C4F20F0148F2DE70C0F2BF
:10046000284008604CF2C811C4F20F010020086057
:100470004CF20001C4F20F010868042262F30F304D
:100480000860704710B590B0002000900F908DF874
:100490003B00FFF735FF00984CF20001C4F2020167
:1004A00008604CF20C01C4F2020108604CF2000139
:1004B000C2F2090140F6FF7008604CF22001C2F25E
:1004C0000901086800F0FE00086040F2402EC0F20A
:1004D000000ECDF804E0DEF80000DEF80410DEF8CF
:1004E0000820DEF80C30DEF810C0DEF81440079467
:1004F000CDF818C00593049203910290DEF818001D
:10050000DEF81C10DEF82020DEF82430DEF828C0EB
:10051000DEF82CE0CDF834E0CDF830C00B930A9231
:1005200009910890FFE74CF23400C2F2090000681C
:10053000C007A0B1FFE79DF83B0001308DF83B00FC
:100540004FF47A70FFF75EFEFFE74CF23400C2F220
:1005500009000068C00708B1FFE7F6E7FFE74CF2C3
:100560001801C2F20901FF2008609DF83B000B282A
:100570000BDBFFE700208DF83B004CF21C01C2F2C0
:0C058000090140F6FF700860FFE7CCE7BF
:040000050000014DA9
:00000001FF
