:060000000A128A11FC2F18
:100F480083160313141CA92FAA2FA42F831203138B
:100F580013080800831603138715871207169401D0
:100F680024308312031394000800F00070088312E1
:100F78000313930083160313141CC32FC42FBE2F0F
:100F88000800831603138801831203138801433072
:100F9800F4000A128A11AE270A128A110A128A115B
:100FA800A4270A128A118312031388000330F3005E
:100FB8000830F2007730F100F10BE02FF20BE02F50
:100FC800F30BE02F74080A128A11B9270A128A1142
:100FD8000330F3000830F2007730F100F10BF22F04
:100FE800F20BF22FF30BF22FD22F0A128A110028DC
:080FF80083010A128A11C52FC2
:08400000FF3FFF3FFF3FFF3FC0
:02400E003A3F37
:00000001FF
