:1000000012C039C038C037C036C035C034C033C064
:1000100032C031C030C02FC02EC02DC02CC02BC06C
:100020002AC029C028C011241FBECFE5D4E0DEBFFE
:0A003000CDBF03D019C0F894FFCF34
:10003A008FEF81BB82BB2FEF39E698E12150304028
:10004A009040E1F700C0000012BA2FEF39E698E1BC
:0E005A00215030409040E1F700C00000EBCF95
:0E006800EC0107D005D0CE0105D0CE0104D0AA
:02007600C4CFF5
:020078000895E9
:02007A000895E7
:02007C000895E5
:02007E00DBDFC6
:00000001FF
